:40000000020506008F828E83E0540100000070F82278FFE4F6D8FD02059CBB010689828A83E0225002E722BBFE02E32289828A83E49322BB010689828A83F0225002F7220A
:40004000BBFE01F322BC000BBE0029EF8DF084FFADF022E4CCF875F008EF2FFFEE33FEEC33FCEE9DEC984005FCEE9DFE0FD5F0E9E4CEFD22EDF8F5F0EE8420D21CFEADF09D
:4000800075F008EF2FFFED33FD4007985006D5F0F222C398FD0FD5F0EA22C5F0F8A3E028F0C5F0F8E582158270021583E038F022BB010A89828A83F0E5F0A3F0225006F787
:4000C00009A7F01922BBFE06F3E5F009F31922EF2BFFEE3AFEED39FDEC38FC22E88FF0A4CC8BF0A42CFCE98EF0A42CFC8AF0EDA42CFCEA8EF0A4CDA8F08BF0A42DCC382559
:40010000F0FDE98FF0A42CCD35F0FCEB8EF0A4FEA9F0EB8FF0A4CFC5F02ECD39FEE43CFCEAA42DCE35F0FDE43CFC2275F008758200EF2FFFEE33FECD33CDCC33CCC582338D
:40014000C5829BED9AEC99E58298400CF582EE9BFEED9AFDEC99FC0FD5F0D6E4CEFBE4CDFAE4CCF9A88222B800C1B90059BA002DEC8BF084CFCECDFCE5F0CBF97818EF2F42
:40018000FFEE33FEED33FDEC33FCEB33FB10D703994004EB99FB0FD8E5E4F9FA227818EF2FFFEE33FEED33FDEC33FCC933C910D7059BE99A4007EC9BFCE99AF90FD8E0E401
:4001C000C9FAE4CCFB2275F010EF2FFFEE33FEED33FDCC33CCC833C810D7079BEC9AE899400AED9BFDEC9AFCE899F80FD5F0DAE4CDFBE4CCFAE4C8F922EF5BFFEE5AFEED72
:4002000059FDEC58FC22EF4BFFEE4AFEED49FDEC48FC22EB9FF5F0EA9E42F0E99D42F0E89C45F022E8600FEFC333FFEE33FEED33FDEC33FCD8F122BB010789828A830202FA
:40024000575005E9F80204DEBBFE05E9F80204EA89828A830204F6E0FCA3E0FDA3E0FEA3E0FF22E0F8A3E0F9A3E0FAA3E0FB22ECF0A3EDF0A3EEF0A3EFF022A42582F58235
:40028000E5F03583F58322E0FBA3E0FAA3E0F922F8E0FBA3A3E0F925F0F0E582158270021583E0FA38F022EBF0A3EAF0A3E9F022D083D082F8E4937012740193700DA3A3A7
:4002C00093F8740193F5828883E4737402936860EFA3A3A380DFE5112582F582E5103583F583B510048582112210AF06858211F51022858211F510D2AF22EC8EF0A4CCC5EB
:40030000F0CCCDF8EFA4CEC5F02DFDE43CFCE8A42EC8C5F03DFDE43CFCEFA4FFE5F028FEE43DFDE43CFC22E709F608DFFA8046E709F208DFFA803E88828C83E709F0A3DFE1
:40034000FA8032E309F608DFFA806EE309F208DFFA806688828C83E309F0A3DFFA805A89828A83E0A3F608DFFA804E89828A83E0A3F208DFFA804280D280FA80C680D480DA
:400380005580F28029801080A680EA809A80A880DA80E280CA802988848C8589828A83E493A30586F0A30586DFF5DEF3800B89828A83E493A3F608DFF9ECFAA9F0EDFB2203
:4003C00088848C8589828A83E0A30586F0A30586DFF6DEF480E389828A83E493A3F208DFF980D688F0EF60010E4E60CD88F0ED2402B4040050C3F582EB2402B4040050B948
:40040000232345822390037773E709F60870FA8046E709F20870FA803E88828C83E709F0A370FA8074E309F60870FA806CE309F20870FA806488828C83E309F0A370FA80EF
:400440005889828A83E0A3F60870FA804C89828A83E0A3F20870FA804080D280FA80C680D4805180F28027801080A680EA809A80A880DA80E280CA802788848C8589828A85
:4004800083E493A30586F0A3058670F5800B89828A83E493A3F60870F9ECFAA9F0EDFB2288848C8589828A83E0A30586F0A3058670F680E589828A83E493A3F20870F980A3
:4004C000D888F0ED2402B4040050CEF582EB2402B4040050C4232345822390045973E6FC08E6FD08E6FE08E6FF22E2FC08E2FD08E2FE08E2FF22E493FC740193FD740293DE
:40050000FE740393FF227593007583467582E8E04401F00090480074C0F07581119076BCE4F0A3F0A3F0A3F0907010F0907019F0907020F09076007410F0907604E4F0A3F2
:400540007400F0A3E4F0A3F090780074FFF0A3740FF0A37401F0A37422F0A374BCF0A37476F0A3E4F0A3F0A374FFF0A3740FF0A374FFF0A37422F0A374BCF0A37476F0A3E3
:40058000E4F0A37410F09070107401F0907014F0E4900FFFF0901FFFF00200117510207511007E707F18120004907010F0120636120B020205F102092BE493A3F8E493A327
:4005C0004003F68001F208DFF48029E493A3F85407240CC8C333C4540F4420C8834004F456800146F6DFE4800B0102040810204080900C3BE47E019360BCA3FF543F30E5CF
:4006000009541FFEE493A360010ECF54C025E060A840B8E493A3FAE493A3F8E493A3C8C582C8CAC583CAF0A3C8C582C8CAC583CADFE9DEE780BE90480074F1F07B007A4663
:4006400079E8120DB2EF4405FD7B007A4679E8120DBE1208617B017A507903120DB2EF4402FD7B017A507903120DBE7B017A507913120DB2EF4402FD7B017A507913120DF5
:40068000BE9043A0E0FFEF4440FF9043A0EFF09043C2E0FFEF4410FF9043C2EFF07B087A07792CC003C002C0017B007A5179128B0D8A0E890FD001D002D0037F087E001227
:4006C0000B4F7B087A077934C003C002C0017B007A5179528B0D8A0E890FD001D002D0037F087E00120B4F7B017A1879587D40120DBE7B017A18795A7D4C120DBE7B017AF3
:4007000018795B7D40120DBE9048007431F012074E90480074B1F0120BC27B007A4379A0C003C002C0017B007A4379B08B0D8A0E890FD001D002D0037F0E7E00120B4F9056
:4007400043B0E0FFEF54FDFF9043B0EFF0227E007F00900004EEF0A3EFF07B007A4079807F007E007D587C00120D667B007A4079847F0B7E007D187C00120D6690430074DB
:4007800002F09040007408F09042007403F07B0C7A017908120DB29046A1EFF07B007A4279227D087C00120D979040007408F07B007A4279207D517C10120D97900006E409
:4007C000F07F387E007D007C0090000012026F900004E0FEA3E0FF8F828E83120257EC4D4E4F6043900006E0FFEF64036039904225E0FFEF5401FF7E00900006E0FEEE254C
:40080000E0FEEE4FFFEF5403FF900006EFF09000001202577BFF7AFF79FF78FF1200CF90000012026F80A87B007A4079047D037C01120D97904004E4F09040047407F0900F
:400840004006E4F09040087448F0904004E4F09040017402F09043A2E0FFEF4403FFEFF0227F007E007D007C0090010712026F9076007410F09070107401F0907019E4F084
:400880009078027401F090780374A3F07B027A7879007D407C01120D997B027A787904C003C002C0017BFF7A0D79EFAC02AD01D001D002D003120D997B027A7879067D0845
:4008C0007C78120D997B027A7679047D107C00120D997B027A7679067D007C00120D999070297409F0907039740EF09070697417F0907079741AF09070147401F090701857
:40090000E0FFEF20E0F7907028E0FFEF20E0F7907038E0FFEF20E0F7907068E0FFEF20E0F7907078E0FFEF20E0F7227BFF7A0F792FC003C002C0017B017A007900A801ACC7
:4009400002AD03D001D002D0037E007F8A1203E37BFF7A0F79B9C003C002C0017B017A00798AA801AC02AD03D001D002D0037E007F061203E37BFF7A0F79BFC003C002C064
:40098000017B017A007990A801AC02AD03D001D002D0037E007F061203E3120D27120D3C9000987401F0900099E4F0A37401F0900098E0FF120CF7900098E004F07F0A7E6D
:4009C000007D007C001209DC900098E0FFEFD394FA40DC9000987401F080D42290FFFC1202D612026F7F007E807D007C00851083851182120263D312021340309000F81278
:400A00000257120C00851083851182C083C082120257C3EF9400FFEE9480FEED9400FDEC9400FCD082D08312026F80B99000EF1202578510838511821202631200DC120CE2
:400A4000009000041202D622904F00E0FFEF5401FFEFF0904F02E0FFEF54FCFFEFF0904F01E0FFEF4401FFEFF0904F0BE0FFEF54CFFFEFF0904F0BE0FFEF4430FFEFF090F5
:400A80004F0BE0FFEF54F0FFEFF0904F0BE0FFEF440FFFEFF07FFF120CF77F00120CDF7F00120D78227FFF7EFF120B8B7F007EB4120C917F017E00120CAB7F017E00120CD6
:400AC000C5120D5190009BEFF07B027A657998120D8AEE4401FCEF4401FD7B027A657998120D9990009BE0FF120D0F906579E0FFEF54FDFFEFF0906579E0FFEF54FBFFEF00
:400B0000F022900100747FF09001017480F0900000747FF0900000E0FFEF6021900000E0FFEF14FF900000E0FE75F008EE90780012027BEFF0900000E014F080D79000005C
:400B4000E0FF75F008EF90780012027BE4F022758600EF4E602FEF60010E8B938A838982850D95850E85850F84E0A30586F0A31586E583458270020593E5854584700205DC
:400B800095DFE6DEE4E4F593F5952290009CEEF0A3EFF090009CE0FEA3E0FFEF4E60227B027A65794890009CE0FCA3E0FD120D997B027A65790890009CE0FCA3E0FD120D49
:400BC00099227B0C7A0179CF120DB2900000EFF0900000E0FFEF5407FF90586EEFF0900000E0FFEFC4540FFFEF540FFF90586FEFF09058767444F022000000000000000090
:400C0000EC4D4E700D78FCEF24E950032840FD2200007BF178DA0000EF28FF78FFEE38FEED38FDEC38FC50E7EF2BFFEE38FEED38FDEC38FC40F2220502030441010B00440C
:400C400000F4016E36004400EF00005DC04100F3184400F82EE0000041010C004400FC000000004301020000004200EC0000009043A3E0FFEF4401FFEFF09043B3E0FFEF38
:400C80004401FFEFF0904F00E0FFEF4401FFEFF02290009CEEF0A3EFF07B027A65791890009CE0FCA3E0FD120D992290009CEEF0A3EFF07B027A65792890009CE0FCA3E030
:400CC000FD120D992290009CEEF0A3EFF07B027A65793890009CE0FCA3E0FD120D992290009BEFF07B027A4F790690009BE0FFEFFD7C00120D992290009BEFF07B027A4FB7
:400D0000790490009BE0FFEFFD7C00120D9922EF54016004D2AF8002C2AFEF5402FF9044F4E054FD4FF02290010BE0FFEF7009120A4890010B7401F0120C6F2290010CE0BC
:400D4000FFEF7009120AA590010C7401F0120DA6229044F4E0F84402F0E85402FF10AF012274014FFF228B938A838982EFF0A3EEF0A3EDF07593002290009BEFF090009B13
:400D8000E0FF904F03EFF0228B938A838982E0FFA3E0FE759300228B938A838982EDF0A3ECF075930022906579E0FFEF4401FFEFF0228B938A838982E0759300FF228B9317
:400DC0008A838982EDF07593002201000000000000000100000000000100010000000800000001000000080001000100000001000823020DCA7608000823030DD2761000A7
:400E00000823040DDA7628000823050DE27630000523060DEA7020000523070DEA7030000523080DEA7060000523FE0DEA70700010220A010751000030220B01075120005F
:400E400010220C010751600010220D010751C0001022FE010751F00FFF220F010700000001221001070FFF03802211010714000180221201071A00020022130107400000F2
:400E80008022140107430004802215010744000100221601074900001022FE0107500000072318000052080007231900085228000C23FE00104F000080231B001C18000039
:400EC00080231C009C18800080231D011C4D000080231E019C4D800080231F021C4C0000802320029C4C8000802321031C1B8000802322039C190000802323041C198000D7
:400F0000802324049C178000802325051C488000802326059C438000802327061C420000802328069C4280001023FE071C501000C00001000000A0000100000090000100D1
:400F400000008800010000008400010000008200010000008100010000008080010000008040010000008020010000008010010000008008010000008004010000008002DA
:400F8000010000008001010000008000810000008000410000008000210000008000110000008000090000008000050000008000030000008000010000FFFFFFFFFFFF802E
:400FC0008080808081000000000000000000000000000000000000000000000000000000000000000000000000000000000000000000000000000000000000000000000070
:4010000000000000000000000000000000000000000000000000000000000000000000000000000000000000000000000000000000000000000000000000000000000000B0
:401040000000000000000000000000000000000000000000000000000000000000000000000000000000000000000000000000000000000000000000000000000000000070
:401080000000000000000000000000000000000000000000000000000000000000000000000000000000000000000000000000000000000000000000000000000000000030
:4010C00000000000000000000000000000000000000000000000000000000000000000000000000000000000000000000000000000000000000000000000000000000000F0
:0200000480007A
:4000000000000000800000000907000000000000001000000000000000001B0000000000000000000000000000000000000000000000000000000000000000000000000005
:4000400000000000000000000000000000000000000000000000000000000000030000000000000000FFFFFF0220F800000000000000000000000C0000000111000048AD53
:40008000C000C000000000000000000000000000000000000000000000000000000401000000000000010002000100000001000200000000000000000000000000000000B4
:4000C0000000000000000000000000000100000000030104002A000000000045050000000010000006FFFFFF0320F7000000030000000000040F0F0400000001000048AD37
:40010000C000C0000000000000000000000000000000000000000000000000000000000000000000000000000000000000000000000000000000000000000000000000003F
:400140000000000000000000000000000000000000000000000000000000000000000000000000000000000000000000020000000000000800000000000000100000000065
:400180000000000000000000000000000000000000000000000000000000000000000000000000000000001800000000000000000000000000000000000000000200000025
:4001C00000000000000000010000000000000000000000000000000000000000000000000000000000000000000000000000000003000400000000000000000004000000F3
:4002000001000000000000000000000000000000000000000000000000000000000000000000000000000000000000010000000000000000000000000000000000000000BC
:40024000000000000000000000000000000000000000000000000000000000000000000000000000000000000000000000000000000000000000000000000000000000007E
:40028000000000000000000000000000000000000000000000000000000000000000000000000000000000000000000000000000000000000000000000000000020000003C
:4002C00000000000000000000000000002000000000000000000000000000000000001000000000000000000000000000000000000000000000000000000000000000000FB
:400300000000000000000000010000000000000000000000000000000000000000000000000000000000000A0000000000000000000000000000000A0000000000000000A8
:40034000000000000100000000000000000000000000000000000000000000000000000000000000000000000000000000000000000000000000000000000000000000007C
:400380000000000000000100000000000000000000000000000000000000000002000000000000000000000000000000000000000000000040000040000000000008004A68
:4003C00000000000000000000000000000010000000000008110000000000000000000000008000000010040000000004000000000000000000000000000000000000000E2
:40040000000000000110000000000000000000000000000000000040400000000000000000000000000000000000000000000000000000000000000000000000000000002B
:400440000000000000000000000000000000000000000000000000000000000008000000000000000000000001000D0040000800000000000000000000001100000000000D
:4004800000000000000000008000000000000000000000000000000000000000000000000000000000000000000000000000000000000000000000000000000000000000BC
:4004C00000000000000000000000000000000000000000000000000000000000000000000000000000000000000000000000000000000000000000000000000000000000FC
:40050000000000000000000080000000000000000000000000000000000000000000000000000000000000000000000000000000000000000000000000000000000000003B
:40054000000000000000000000000000000040000000000000000000000000000000000000000000000000000000000000000000000000000000000000000000000000003B
:4005800000000000000000000000000000000000000000000000000000000000000000000000000000000000000000000000000000000000000040000000000000000000FB
:4005C00000000000000000000000000000000000000000000000000000000000000000000000000000000000000000000000000000000000000000000000000000000000FB
:40060000000000000000000000000000000000000000000000000000000000000000000000000000000000000000000000004000000000000000000000000000000000007A
:40064000000000000000000000000000000000000000000000000000000000000000000000000000000000000000000000000000000000000000000000000000000000007A
:40068000000000000000000000000000000000000000000000000000000000000000000000000000000000000000000000000000000000000000000000000000000000003A
:4006C00000000000000000000000000000000000000000000000000000000000000000001000000000000000000000000000000000000000000000000000000000000000EA
:4007000000000000000000000000000000000000000000000000000000000000010000000000000000000000010000008000000000000000000F0F000F000000000000000A
:400740000000000000000000000000000000000000000000000000000000000000000000000000000000000000000000000000000000000000000000000000000000000079
:400780000000000000000000000000000000000000000000000000000000000000000000000000000000000000000000000000000000000000000000000000000000000039
:4007C00000000000000000000000000000000000000000000000000000000000000000000000000000000000000000000000000000000000000000000000000000000000F9
:4008000000000000000000000000000000000000000000000000000000000000000000000000000000000000000000000000000000000000000000000000000000000000B8
:0200000490006A
:0400000000000005F7
:0200000490105A
:0400000000000000FC
:0200000490501A
:0C00000000011E03406903011E0AA76BEB
:0200000490303A
:02000000670295
:0200000490402A
:4000000000000000000000000000000000000000000000000000000000000000000000000000000000000000000000000000000000000000000000000000000000000000C0
:00000001FF
